:1000000073C0000092C0000090C000008EC00000CD
:10001000D0C000008AC0000088C0000086C0000078
:1000200084C0000082C0000080C000007EC00000CC
:100030007CC000007AC0000078C0000076C00000DC
:1000400074C0000072C0000070C000006EC00000EC
:100050006CC000006AC0000068C0000066C00000FC
:1000600064C0000062C0000060C000005EC000000C
:100070005CC000005AC0000058C0000056C000001C
:1000800054C0000052C0000050C000004EC000002C
:100090004CC000004AC0000048C0000046C000003C
:1000A00044C0000042C0000040C000003EC000004C
:1000B0003CC000003AC0000038C000005DC0000035
:1000C00034C0000032C000003EC000002EC000005E
:1000D0002CC000002AC0000028C0000026C000007C
:1000E00024C00000AD011F0311241FBECFEFD1E2D9
:1000F000DEBFCDBF00E00CBF22E0A0E0B2E001C057
:100100001D92A630B207E1F710E0C4E7D0E000E0AE
:1001100005C021970109802FFE011FD3C237D107E7
:1001200080E00807B1F702D062C36ACF789480E01C
:1001300092E0B0D082E092E0B6D141E0BC0180E034
:1001400092E0E8D0F3CF1F920F920FB60F921124D6
:100150000BB60F928F93EF93FF93E2E0F2E0818171
:100160008F5F8183FF91EF918F910F900BBE0F9066
:100170000FBE0F901F9018951F920F920FB60F92FF
:1001800011240BB60F928F93EF93FF934F9B07C0F1
:10019000E1E2F1E08081887F80835F98EB9AFF91B4
:1001A000EF918F910F900BBE0F900FBE0F901F908D
:1001B00018951F920F920FB60F9211240BB60F9243
:1001C0000F931F932F933F934F935F936F937F935F
:1001D0008F939F93AF93BF93CF93DF93EF93FF934F
:1001E0004B9B0AC01092250110922401E1E2F1E03C
:1001F00080818160808327C0E1E2F1E08081887F97
:100200008083EB98F89404E211E0F80120813181B9
:10021000C2E0D2E06981862F90E0A0E0B0E0DC018E
:1002200099278827BC01CD01620F731F811D911D85
:1002300048EC50E0D2D09B838A83789481E0888315
:10024000F80111821082FF91EF91DF91CF91BF9160
:10025000AF919F918F917F916F915F914F913F915E
:100260002F911F910F910F900BBE0F900FBE0F900B
:100270001F90189523E330E0FC0131832083109216
:10028000C50080818093C400E2ECF0E0808186604C
:1002900080830895E1ECF0E0808188618083089597
:1002A000E0ECF0E0808185FFFDCF8AE08093C6001E
:1002B000E0ECF0E0808185FFFDCF8DE08093C6000B
:1002C00008959C01E0ECF0E0908195FFFDCF6093F4
:1002D000C600442311F0C901E3CF0895FF920F93A4
:1002E0001F93CF93DF938C01EB01F42E688166237B
:1002F00039F0219640E0C801E4DF69916111FACF3D
:10030000FF2011F0C801CCDFDF91CF911F910F9139
:10031000FF900895FF920F931F93CF93DF9300D028
:1003200000D0CDB7DEB78C01CB01F42E4AE0BE0180
:100330006F5F7F4F29D24F2DBE016F5F7F4FC80186
:10034000CDDF26960FB6F894DEBF0FBECDBFDF918E
:10035000CF911F910F91FF90089580E092E08ACF96
:100360000895FC0181E08083118213821282579AE2
:100370005F98E3E7F0E080818160808384EB90E028
:100380009093290180932801E9E6F0E08081806460
:10039000808308951F93CF93DF93162FD72F6C5E22
:1003A0007F4FC1E050E0E12FFD2F4C2F81919191C3
:1003B000208131812817390738F4DF0112972D93F6
:1003C0003C9391838083452FE617F70779F7442301
:1003D00051F3DF91CF911F9108954F925F926F92E9
:1003E0007F92AF92BF92CF92DF92EF92FF920F93E4
:1003F0001F93CF93DF93EA01AAE6B8E19B01AC011A
:1004000044D128EC30E040E050E01DD129013A0110
:100410008EE592E0C89F9001C99F300DD89F300DA6
:100420001124C901A0E0B0E09C01AD012E58324773
:100430004D4C5F4FACE3B0E028D1DC01CB01A82EDE
:10044000B92ECA2EDB2EE12CF12C00E010E020E0CA
:1004500030E749EC52EB6BE870E080E090E021D1AE
:1004600040E050E0C301B201EED0C901DF91CF916D
:100470001F910F91FF90EF90DF90CF90BF90AF90C2
:100480007F906F905F904F900895FC012081222310
:1004900049F01082109203025F9AE1E2F1E080815C
:1004A0008160808308954F925F926F927F928F92C6
:1004B0009F92AF92BF92CF92DF92EF92FF920F93F3
:1004C0001F93CF93DF93CDB7DEB764970FB6F89441
:1004D000DEBF0FBECDBF8C01E3E7F0E0808182601C
:1004E0008083AE014F5F5F4F7A015E0155E1A50E3B
:1004F000B11C6701C801C9DFF8018081811108C002
:10050000F5E3FA95F1F70000F80190819923C1F322
:10051000F80182819381F601819391936F01EA152D
:10052000FB0541F7E3E7F0E080818D7F8083BE012A
:100530006F5F7F4FC8012EDF4B845C8489859A856D
:10054000480E591E56944794612C712CAFE5B0E0CB
:10055000A30192019AD024E630E040E050E073D04D
:1005600049015A01A9E6B0E0A30192018ED024E628
:1005700030E040E050E067D089019A0180E090E0EF
:10058000F701419151917F0160E070E048155905F4
:100590006A057B0540F0041715072607370720F486
:1005A00021E0280F05C0982F8F5F8A3049F729E096
:1005B000921700F5892F8F5F8213FDCF892FC12CF1
:1005C000D12C7601E82FF0E0EE0FFF1F41E050E064
:1005D0004C0F5D1FE40FF51F40815181C40ED51EE5
:1005E000E11CF11C8F5F8213EDCF892F8F5F821783
:1005F000E8F303C0C12CD12C760130E0291B31096E
:10060000032E000C440B550BC701B6011CD0C901C9
:1006100064960FB6F894DEBF0FBECDBFDF91CF91C9
:100620001F910F91FF90EF90DF90CF90BF90AF9010
:100630009F908F907F906F905F904F90089582E091
:1006400092E08FCE0895A1E21A2EAA1BBB1BFD01DA
:100650000DC0AA1FBB1FEE1FFF1FA217B307E407A1
:10066000F50720F0A21BB30BE40BF50B661F771FF9
:10067000881F991F1A9469F76095709580959095D9
:100680009B01AC01BD01CF0108956FD0A59F900DD6
:10069000B49F900DA49F800D911D1124089568941E
:1006A00001C0E8948F929F92CF93DF9305D0DF91A2
:1006B000CF919F908F90089588249924F401E401AC
:1006C000B0E49F93AA279A158B049C04ED05FE05C0
:1006D000CF05D007A10798F4AD2FDC2FCF2FFE2F29
:1006E000E92D982C892E982F872F762F652F542F40
:1006F000432F322F2227B85031F7BF9127C01B2E2E
:10070000BF91BB27220F331F441F551F661F771F42
:10071000881F991F881C991CEE1FFF1FCC1FDD1F0F
:10072000AA1FBB1F8A149B04EC05FD05CE05DF053F
:10073000A007B10748F08A189B08EC09FD09CE090B
:10074000DF09A00BB10B21601A94E1F62EF494019D
:10075000AF01BE01CD01000C0895EE0FFF1F881FF1
:100760008BBF0790F691E02D1994A29FB001B39F23
:10077000C001A39F700D811D1124911DB29F700DAA
:10078000811D1124911D0895BB274A3031F499230E
:1007900022F4BDE2909581959F4F01C0BB27FB01DC
:1007A0005527AA27880F991FAA1FA41710F0A41B6A
:1007B00083955051B9F7A05DAA3308F0A95DA193C4
:1007C000009779F7B111B1931192CB0100C0DC0110
:1007D000FC01672F71917723E1F7329704C07C9178
:1007E0006D9370836291AE17BF07C8F30895F894B4
:0207F000FFCF39
:00000001FF
