:1000000075C00000A1C000009FC000009DC000009E
:100010009BC0000099C0000097C0000095C0000080
:1000200093C0000091C000008FC000008DC0000090
:100030008BC0000089C0000087C0000085C00000A0
:1000400083C0000081C000007FC000007DC00000B0
:100050007BC0000079C0000077C0000075C00000C0
:1000600073C0000071C000006FC000006DC00000D0
:100070006BC0000069C0000067C0000065C00000E0
:1000800063C0000061C000005FC000005DC00000F0
:100090005BC0000059C0000057C0000055C0000000
:1000A00053C0000051C000004FC000004DC0000010
:1000B0004BC0000049C0000047C0000045C0000020
:1000C00043C0000041C000003FC000003DC0000030
:1000D0003BC0000039C0000037C0000035C0000040
:1000E00033C00000B200EB00FF001C0111241FBE52
:1000F000CFEFD1E2DEBFCDBF00E00CBF12E0A0E049
:10010000B2E0E4E5F2E000E00BBF02C007900D9220
:10011000A030B107D9F722E0A0E0B2E001C01D9203
:10012000A033B207E1F710E0C6E7D0E000E005C079
:1001300021970109802FFE0183D0C237D10780E0CB
:100140000807B1F717D084C05BCF10D085E38A953C
:10015000F1F700005A9AE9E6F0E08081806280833E
:10016000EA9A089580E092E0F0CF089588E48093C1
:10017000B8000895FFCFCF93DF93FC0111A210A226
:1001800089E182A313A2A0E8B0E08C9182608C93F5
:10019000C1E8D0E08881886188838C91806A8C93E3
:1001A0008FE39CE9909387008093860084B18066FA
:1001B00084B98FE697E190938D0080938C00AFE631
:1001C000B0E08C9188608C9381E090E0918B808B83
:1001D000DF91CF91089582E092E0CDCF089523E39F
:1001E00030E0FC01318320831092C5008081809330
:1001F000C400E2ECF0E080818660808308958AE2AA
:1002000092E0EDCF0895FC0181E08083118213829A
:100210001282579A5F98E3E7F0E0808181608083E3
:1002200084EB90E09093290180932801E9E6F0E0C7
:1002300080818064808308958CE292E0E4CF089509
:10024000EE0FFF1F881F8BBF0790F691E02D1994CA
:04025000F894FFCF50
:00000001FF
