S00E000055736F6E69632E73726563A5
S113000075C00000A3C00000A1C000009FC0000094
S11300109DC000009BC0000099C0000097C0000074
S113002095C0000093C0000091C000008FC0000084
S11300308DC000008BC0000089C0000087C0000094
S113004085C0000083C0000081C000007FC00000A4
S11300507DC000007BC0000079C0000077C00000B4
S113006075C0000073C0000071C000006FC00000C4
S11300706DC000006BC0000069C0000067C00000D4
S113008065C0000063C0000061C000005FC00000E4
S11300905DC000005BC0000059C0000057C00000F4
S11300A055C0000053C0000051C000004FC0000004
S11300B04DC000004BC0000049C0000047C0000014
S11300C045C0000043C0000041C000003FC0000024
S11300D03DC000003BC0000039C0000037C0000034
S11300E035C00000B400A70CBB0CD80C11241FBEF3
S11300F0CFEFD1E2DEBFCDBF00E00CBF14E0A0E043
S1130100B2E0E6E8FAE100E00BBF02C007900D920E
S1130110AC30B107D9F726E0ACE0B4E001C01D92E1
S1130120A837B207E1F710E0C6E7D0E000E006C068
S113013021970109802FFE010E94170DC237D107B4
S113014080E00807A9F718D00C94410D59CF10D0BE
S113015085E38A95F1F700005A9AE9E6F0E0808198
S113016080628083EA9A08958CE094E0F0CF089549
S113017088E48093B8000895CF93DF93CDB7DEB7BA
S11301802C970FB6F894DEBF0FBECDBFCE010196FB
S113019028D101D0FFCF0E94670C0E942D0B882329
S11301A019F025D7811106C080E092E00E94590C15
S11301B080E0089581E00895CF93DF93EC0187E216
S11301C092E00E94590C62E788819981C3D781111A
S11301D008C08AE392E00E94590C0E94A80981E0B9
S11301E001C080E0DF91CF9108956F927F928F924A
S11301F09F92AF92BF92CF92DF92EF92FF920F93B2
S11302001F93CF93DF93CDB7DEB72B970FB6F89438
S1130210DEBF0FBECDBF5C018B018DB69EB6FB0168
S113022001900020E9F73197CF01861B970B2BE053
S1130230ECEEF3E0DE01119601900D922A95E1F7C0
S1130240F5012281338162177307A1F19E012F5FAB
S11302503F4F6901F90101900020E9F73197AF019F
S1130260421B530BFB0101900020E9F73197E61B79
S1130270F70B4E0F5F1F4F5F5F4F8DB79EB7841B09
S1130280950B0FB6F8949EBF0FBE8DBFEDB7FEB7AA
S113029031967F016E2E7F2C64EA73E0CF010E94B9
S11302A0320DB601C7010E94270DB801C7010E9493
S11302B0270D10C02DB73EB7281B390B0FB6F89485
S11302C03EBF0FBE2DBF8DB79EB70196682E792E07
S11302D00E94270D8BE492E00E94590C62E7F5011D
S11302E08081918137D789E692E00E94590C609110
S11302F0690670916A0680916B0690916C060E9463
S1130300B30980E992E00E94590C862D972D0E9432
S1130310D70A8DE00E94250A8AE00E94250A87EB0D
S113032092E00E94590C0E94A8098FED92E00E946D
S1130330590C0FB6F8949EBE0FBE8DBE2B960FB609
S1130340F894DEBF0FBECDBFDF91CF911F910F9107
S1130350FF90EF90DF90CF90BF90AF909F908F90E1
S11303607F906F900895CF93DF93EC0125DF811187
S113037019C08CEF92E00E94590C888199810E94E7
S1130380590C63E688819981E5D6E2D783E193E04D
S11303900E94590C6A817B81CE0127DF8BE293E0B6
S11303A00E94590CDF91CF910895CF93DF93EC0114
S11303B0798368835B834A831C821D821E821F8229
S11303C0188619861A861B8682E493E00E94590CCB
S11303D0888199810E94590CCE01C5DFDF91CF91AC
S11303E008954AE853E065E074E0DFCF0895109281
S11303F0410445E554E00C94E00B0895CF92DF925C
S1130400EF92FF920F931F93CF93DF9300916506B2
S11304101091660620916706309168060617170743
S11304202807390731F16B017C0180914104813047
S113043041F41092410445E554E0C901B8010E9419
S1130440E00BCFE5D6E08E819F81A885B9858093A6
S11304503D0490933E04A0933F04B093400445E5CB
S113046054E0C701B6010E94200CCE82DF82E886E8
S1130470F98681E0DF91CF911F910F91FF90EF906A
S1130480DF90CF900895CF92DF92EF92FF920F9377
S11304901F93CF93DF936B017C01C42FD0E00DE356
S11304A014E0C701B6016D0F711D811D911DA6DFFA
S11304B030910E04E5E5F4E080E090E02081222311
S11304C011F0253E89F43F5F3C130FC09695879544
S11304D0929582958F7089279F70892780936F06E4
S11304E010920E0481E00FC030E08096B096811522
S11304F022E0920719F730930E04DF5FF801858933
S1130500D81778F280E0DF91CF911F910F91FF907F
S1130510EF90DF90CF9008950F931F939B01AC0150
S11305202250310941095109EDE3F4E0A589B0E015
S11305300E940D0D0585168527853089600F711F72
S1130540821F931F1F910F9108950F931F93EDE343
S1130550F4E00585168527853089601B710B820BB5
S1130560930B258930E040E050E00E94DC0CCA0186
S1130570B9016E5F7F4F8F4F9F4F1F910F91089569
S11305800F931F93EFE5F6E0DC01A759BB4F4D91A4
S11305905C9160E070E0BA0155274427DC01A15961
S11305A0BB4F0D911C9120E030E0402B512B622B6E
S11305B0732B418B528B638B748BDC01AF58BB4F15
S11305C08D919D910D90BC91A02D82879387A487D6
S11305D0B5871F910F9108952F923F924F925F928A
S11305E06F927F928F929F92AF92BF92CF92DF923F
S11305F0EF92FF920F931F93CF93DF932B013C0154
S11306006A01212C45E554E053014201820C911CFE
S1130610A11CB11CC501B4010E94200C8092650686
S113062090926606A0926706B0926806C5E5D4E08B
S113063000E010E08881882309F45AC09B8590313A
S113064019F0903209F045C0853E09F442C0312CBE
S1130650912CC801835C9B4F7C01F701E90DF11DCE
S1130660808C90E2891202C0939415C0F601E30DC8
S1130670F11D80818E3229F487E0891578F4339452
S11306800AC090E00E941F0D282D30E0281739077A
S113069029F4339493949AE09915F8F68BE0981220
S11306A018C0CFE5D6E0C8019695879592958295B6
S11306B08F7089279F708927888BC80161DF8E819D
S11306C09F81A885B9858D8B9E8BAF8BB88F81E078
S11306D00FC0005E1F4FA096011592E0190709F0A4
S11306E0A9CF239480915204281608F48BCF80E07C
S11306F0DF91CF911F910F91FF90EF90DF90CF90FA
S1130700BF90AF909F908F907F906F905F904F902D
S11307103F902F9008952F923F925F926F927F9215
S11307208F929F92AF92BF92CF92DF92EF92FF92FD
S11307300F931F93CF93DF9300D01F92CDB7DEB7F3
S11307409C838B83562E49015A016701780181E00D
S11307508093410400916F0680E2089F8001112478
S1130760F801EB5AFB4FFA83E983CF0145961192C6
S11307708E179F07E1F769807A80312C10E0689426
S1130780222425F8F3012082183070F5EB81FC81D6
S1130790E30DF11D80818E3251F190E00E941F0D16
S11307A0F3018083339423C03394EB81FC81E30D04
S11307B0F11D8081882331F090E00E941F0DF30128
S11307C080833394FFEF6F1A7F0A1F5F1B30D1F6CB
S11307D0E981FA815386B58AA48A938E828EC48E67
S11307E0D58EE68EF78E06C01830F9F6DDCF1830B8
S11307F049F7DACF0F900F900F900F90DF91CF91C0
S11308001F910F91FF90EF90DF90CF90BF90AF902A
S11308109F908F907F906F905F903F902F9008955E
S1130820CF92DF92EF92FF920F931F932091530484
S1130830203181F56B017C01CC0CDD1CEE1CFF1C0E
S1130840B701A601032E39E076956795579547952C
S11308503A95D1F7302D80914E0490914F04A09198
S11308605004B09151048A019B01080F191F2A1FDB
S11308703B1FC901B801C2DD11E0D122EE24FF24DF
S1130880C6014896FC01E35CFB4F6081718180E006
S113089090E033C06B017C01CC0CDD1CEE1CFF1C12
S11308A0CC0CDD1CEE1CFF1CB701A601032E39E0A5
S11308B076956795579547953A95D1F7302D809160
S11308C04E0490914F04A0915004B09151048A01B8
S11308D09B01080F191F2A1F3B1FC901B8018EDD98
S11308E011E0D122EE24FF24C6014896FC01E35C0A
S11308F0FB4F60817181828193811F910F91FF90E1
S1130900EF90DF90CF900895CF92DF92EF92FF9215
S11309100F931F93CF93DF938C01C0904204D09028
S11309204304E0904404F0904504C114D104E1046C
S1130930F10421F5809153048031C1F4F12CCDE30D
S1130940D4E089859A85AB85BC85BC01CD016F0D4A
S1130950711D811D911DA8013FDE8130B1F18D898A
S1130960F80E8FE18F1568F780E02FC0C090460421
S1130970D0904704E0904804F0904904CDE3D4E0DB
S11309800CC0C701B601C8DDA80126DE8130E9F03C
S1130990C701B60145DF6B017C0188EFC8168FEFF4
S11309A0D806E8068FE0F80618F08E89803261F0E8
S11309B088EFC8168FEFD806E104F10410F38E898E
S11309C08031F9F680E001C080E0DF91CF911F9182
S11309D00F91FF90EF90DF90CF9008952F923F9268
S11309E04F925F926F927F928F929F92AF92BF923B
S11309F0CF92DF92EF92FF920F931F93CF93DF93E7
S1130A001B012C0189DDE5E5F6E0608371838283B7
S1130A1093838091520490E09583848372016101F1
S1130A20C0E0D0E08F010F2EFDE36F2EF4E07F2EA7
S1130A30F02DC701B601F4DE460157012FEF821AEB
S1130A40920AA20AB20A681579058A059B05A1F4DF
S1130A50F3012589F80144815581FA01E20FF11D62
S1130A609F01F8013583248321966B017C01C11514
S1130A70F1E0DF07F1F609C0C0925B06D0925C0694
S1130A80E0925D06F0925E060EC0520141012FEF26
S1130A90921AA20AB20A80925B0690925C06A09215
S1130AA05D06B0925E06DF91CF911F910F91FF908A
S1130AB0EF90DF90CF90BF90AF909F908F907F90FA
S1130AC06F905F904F903F902F9008958F929F92D8
S1130AD0AF92BF92CF92DF92EF92FF920F931F9348
S1130AE0CF93DF934B015C0105C08FEF881A980AFE
S1130AF0A80AB80AC501B40193DE672B682B692BD9
S1130B00A1F7C501B40108DDE5E5F6E06083718372
S1130B10828393838091520490E09583848375014A
S1130B206401EFEFCE1ADE0AEE0AFE0AFFEF9F1A07
S1130B30AF0ABF0AC5E5D6E00DE314E0C701B6016C
S1130B406FDE672B682B692B91F4F80125898C8162
S1130B509D81820F911D9D838C83FFEFCF1ADF0A45
S1130B60EF0AFF0AC814D904EA04FB0439F7DF9139
S1130B70CF911F910F91FF90EF90DF90CF90BF9096
S1130B80AF909F908F9008958F929F92AF92BF9253
S1130B90CF92DF92EF92FF920F931F9349015A0174
S1130BA020915304203171F56B017C01CC0CDD1CC8
S1130BB0EE1CFF1CB701A601032E39E0769567955C
S1130BC0579547953A95D1F7302D80914E049091E1
S1130BD04F04A0915004B09151048A019B01080F65
S1130BE0191F2A1F3B1FC901B80108DC11E0D122DB
S1130BF0EE24FF24C6014896FC01E35CFB4F91827E
S1130C00808233C06B017C01CC0CDD1CEE1CFF1C0C
S1130C10CC0CDD1CEE1CFF1CB701A601032E39E031
S1130C2076956795579547953A95D1F7302D8091EC
S1130C304E0490914F04A0915004B09151048A0144
S1130C409B01080F191F2A1F3B1FC901B801D6DBDE
S1130C5011E0D122EE24FF24C6014896FC01E35C96
S1130C60FB4F80829182A282B38281E0809341040F
S1130C701F910F91FF90EF90DF90CF90BF90AF90B6
S1130C809F908F9008952F923F924F925F927F9200
S1130C908F929F92AF92BF92CF92DF92EF92FF9288
S1130CA00F931F93CF93DF931F921F92CDB7DEB79D
S1130CB09A838983762EC0904204D0904304E090B6
S1130CC04404F0904504C114D104E104F10449F44E
S1130CD0EDE3F4E0C184D284E384F4848689803132
S1130CE019F00DE314E017C010E041E0C701B601AC
S1130CF0610F711D811D911DC6DB813009F4B5C0E2
S1130D0080915204180F103280F3AFC06B017C0144
S1130D1002C06B017C01C701B601FEDB41E0B3DB1D
S1130D20813009F4A2C08090650690906606A09078
S1130D306706B0906806C701B60172DD683F2FEF01
S1130D40720782072FE0920720F0F80126892032EB
S1130D5051F0683FFFEF7F0781059105B8F2F80174
S1130D6026892031B1F6609155067091560680911E
S1130D70570690915806E9DB1B012C019B01AC013D
S1130D80C701B60101DF2FEF3FEF4FEF5FE0C20174
S1130D90B101FADE6091650670916606809167067E
S1130DA09091680645E554E00BD5E5E5F6E085E568
S1130DB094E01292E817F907E1F7512C0DE314E0DF
S1130DC001C0592EE5E5F6E080819181A281B381CD
S1130DD0BC01CD01650D711D811D911D08DB91E0E4
S1130DE0950DF8018589581660F3E5E5F6E0208055
S1130DF0318042805380209265063092660640928C
S1130E00670650926806C501B4019FDB60935B06D8
S1130E1070935C0680935D0690935E0641E0C20188
S1130E20B10131DB8091590690915A0640915204E8
S1130E30242F30E028173907A8F4E5E5F6E0C08050
S1130E40D180E280F38046015701840E911CA11CDD
S1130E50B11C80829182A282B382821B930B958300
S1130E60848303C0C701B60131DE80916506909189
S1130E706606A0916706B091680680937406909305
S1130E807506A0937606B09377060F2EF5E5CF2E60
S1130E90F6E0DF2EF02DF60160817181828193816D
S1130EA054DB9B01AC0160937006709371068093D0
S1130EB0720690937306F601668377838087918721
S1130EC01092690610926A0610926B0610926C06D4
S1130ED0E12CF12C8701672D89819A811CDC6091BA
S1130EE0650670916606809167069091680645E5EF
S1130EF054E066D4F60180819181A281B38180930C
S1130F00650690936606A0936706B09368060F90F3
S1130F100F90DF91CF911F910F91FF90EF90DF9091
S1130F20CF90BF90AF909F908F907F905F904F90A5
S1130F303F902F9008954F925F926F927F928F927D
S1130F409F92AF92BF92CF92DF92EF92FF926B018A
S1130F507C0129013A0160915B0670915C068091E5
S1130F605D0690915E06A70196010EDEC414D504B9
S1130F70E604F70499F0460157018FEF881A980A9E
S1130F80A80AB80AA5019401C701B601FDDD7501DF
S1130F906401481459046A047B0469F72FEF3FEF96
S1130FA04FEF5FE0C301B201EFDD40925B06509268
S1130FB05C0660925D0670925E0610924104609138
S1130FC0650670916606809167069091680645E50E
S1130FD054E0F6D3FF90EF90DF90CF90BF90AF90A6
S1130FE09F908F907F906F905F904F9008958F9215
S1130FF09F92AF92BF92CF92DF92EF92FF92CF93E4
S113100045E554E060E070E0CB011AD4C82F81308C
S113101009F094C080911E0681110EC080901B06B9
S113102090901C06A0901D06B0901E0645E554E065
S1131030C501B40105D403C0812C912C5401EDE306
S1131040F4E085A1858BC6A0D7A0E12CF12CC18A40
S1131050D28AE38AF48A86A597A541A552A5440FAE
S1131060551F42955295507F5427407F5427415035
S11310705E4F452F5527469560E070E041155105B8
S113108061057105F1F424AD35AD46AD57AD8091E0
S1131090810490918204A0918304B0918404818797
S11310A09287A387B487A0A5B0E0B7D4C60ED71E95
S11310B0E81EF91EC586D686E786F08A80E2868B0E
S11310C01EC0EDE3F4E0A0A5A89F9001A99F300DF8
S11310D01124C20ED31EE11CF11C4C0D5D1D6E1DAE
S11310E07F1D458756876787708BC80CD91CEA1CFF
S11310F0FB1CC186D286E386F48680E1868BEDE311
S1131100F4E081899289A389B489880D991DAA1D67
S1131110BB1D818B928BA38BB48B85859685A7850C
S1131120B089880E991EAA1EBB1E85869686A78640
S1131130B08A158216821782108601C0C0E08C2FF7
S1131140CF91FF90EF90DF90CF90BF90AF909F90A2
S11311508F9008950F931F93CF93DF93EC01162F75
S1131160D3DB8130C1F4123751F50FE516E0F801F5
S1131170618972898389948931DCF801D787C687AC
S113118060915506709156068091570690915806C5
S113119035D980E019C0811114C01336A1F4D0935D
S11311A06E06C0936D0662E070E080E090E08EDC35
S11311B060E2CE0168DD81E08093410405C082E0F5
S11311C003C082E001C082E0DF91CF911F910F91B3
S11311D008954F925F926F927F928F929F92AF92F7
S11311E0BF92CF92DF92EF92FF920F931F93CF9310
S11311F0DF93AFE5B6E0ED91FC9111971296CD9097
S1131200DD90ED90FC901597CE0EDF1EE11CF11CD5
S11312101A968D919D910D90BC91A02D8C159D05D4
S1131220AE05BF0508F05AC080906506909066062A
S1131230A0906706B0906806309709F059C062C064
S11312401192E817F907E1F781E08093410410C097
S11312507CD92B013C016091550670915606809112
S113126057069091580671D9A301920164DE11C00A
S1131270C501B4016AD92B013C01609155067091F6
S1131280560680915706909158065FD9A3019201A2
S113129052DECFE5D6E06D897E898F89988DAED8F0
S11312A0E88980E2E89FF0011124EF58FB4FC082E7
S11312B0D182E282F382CA86DB86EC86FD86809246
S11312C0550690925606A0925706B092580681E0B1
S11312D080934104C501B40191D829C06091650689
S11312E070916606809167069091680680D81FC049
S11312F0E11582E0F80708F0BBCFEB5AFB4F85E518
S113130096E09ECFC501B40161507109810991092C
S113131000915506109156062091570630915806B3
S1131320601771078207930708F4B3CF91CFDF9159
S1131330CF911F910F91FF90EF90DF90CF90BF90CE
S1131340AF909F908F907F906F905F904F90089593
S113135040DFEFE5F6E011821082128213821482DC
S1131360158281E008958F929F92AF92BF92CF929F
S1131370DF92EF92FF920F931F93CF93DF934B0172
S11313805C0127DFCFE5D6E069897A898B899C895E
S113139025DB409155065091560660915706709191
S11313A058061A821B821C821D82811482E09806D0
S11313B0A104B104A8F1750164018E01C5E5D6E06C
S11313C0E2E0DE1AE108F108F80182819381A48148
S11313D0B5819E5FAF4FBF4F82839383A483B58350
S11313E08C819D8101979D838C83892B29F04F5F8C
S11313F05F4F6F4F7F4F0AC06E817F8188859985CB
S11314000FDAECDA488159816A817B81C114F2E0F8
S1131410DF06E104F104A0F681E09822AA24BB24AB
S1131420CB01BA010E94FE019092600680925F0691
S1131430DF91CF911F910F91FF90EF90DF90CF90AC
S1131440BF90AF909F908F900895CF92DF92EF92CC
S1131450FF920F931F93CF93DF93EFE5F6E0208184
S11314603181A9014F5F5F4F51834083F901E35CF0
S1131470FB4F808F4115524009F090C0CFE5D6E074
S1131480198218828A819B81AC81BD819E5FAF4F96
S1131490BF4F8A839B83AC83BD836E817F818885A4
S11314A0998545E554E08CD14E815F8168857985C5
S11314B0DB01CA010196A11DB11D8E839F83A887FC
S11314C0B987E5E5F6E08481958101979583848366
S11314D0892B09F049C00A811B812C813D818A85B1
S11314E09B85AC85BD8580179107A207B30740F59E
S11314F00DE314E0F8011482CB01BA0126D86B0184
S11315007C01C5E5D6E0688179818A819B811DD8FB
S1131510A701960110DD6E817F8188859985D6DAD1
S113152088819981AA81BB81809365069093660620
S1131530A0936706B093680681E0F801848314C021
S1131540C5E5D6E06E817F818885998569D946DABB
S113155088819981AA81BB818093650690936606F0
S1131560A0936706B0936806EFE5F6E042815381E5
S11315706481758182859385A485B58584179507D3
S1131580A607B70758F060916506709166068091CA
S113159067069091680645E554E052D1DF91CF91FA
S11315A01F910F91FF90EF90DF90CF900895CF930C
S11315B0DF93EC018881882329F0219646DF899105
S11315C08111FCCF81E080934104DF91CF91089594
S11315D08EBD0DB407FEFDCF08958FEF8EBD0DB403
S11315E007FEFDCF8EB50895289AF7CF0895FF9290
S11315F00F931F93CF93DF93C82FD42F152F062F4C
S1131600F72EF2DF2898E9DF8F3FE9F78C2F80640B
S1131610DFDF8F2DDDDF802FDBDF812FD9DF8D2F03
S1131620D7DFCC2389F0C83061F081E0D1DFCC3042
S113163009F4D3DFCAE0D1DF88234CF4C150D9F7D1
S113164006C087E8C5DFF6CF85E9C2DFF3CFDF91B7
S1131650CF911F910F91FF900895AF92BF92CF92B7
S1131660DF92FF920F931F93CF93DF9300D01F92CB
S1131670CDB7DEB72398219A229A209A83E58CBDB0
S1131680289AB2DF04E610E0A8DF01501109E1F75F
S113169004E610E0F12C40E050E0BA0180E0A7DF5E
S11316A0813009F066C04AEA51E060E070E088E009
S11316B09EDF813009F03BC0CE0101965C016E01D2
S11316C095E0C90ED11C850188DFF80181938F0153
S11316D0CE16DF06C9F78B81813009F03EC08C81BC
S11316E08A3A09F03AC040E050E0BA0187E37FDF6C
S11316F040E050E060E070E489E279DF8111F3CFEB
S11317000EC06BDFF50181935F01CE16DF06C9F7CA
S1131710898186FD33C06894FF24F2F821C040E03B
S113172050E0BA018AE363DF8111F9CFEACF40E0E8
S113173050E0BA0189E25BDF823020F0FF24F394A9
S113174011E004C06894FF24F1F819E240E050E08D
S1131750BA01812F4CDF8111F9CFFCE0FF1691F023
S113176040E052E060E070E080E141DF8111F8CFB9
S113177009C00150110909F08ECF04C00F2EFCE0FE
S1131780FF2EF02D0DE314E0F801F78A2DDFF801A8
S11317908789882339F08CB58C7F8CBD8DB58160A9
S11317A08DBD81E00F900F900F900F90DF91CF913E
S11317B01F910F91FF90DF90CF90BF90AF9008954D
S11317C0FF920F931F93CF93DF938A0120915404C8
S11317D023FD09C0052E59E0660F771F881F991F46
S11317E05A95D1F7502DAB01BC0188E100DFF82EEA
S11317F081111EC0F2DE8F3FE9F78EEFE9DEE801CA
S11318001E5F8991E5DEC017D107D9F78FEFE0DEBF
S11318108FEFDEDEC4E1E1DE8F71853019F0C15057
S1131820D1F707C0CC2329F0DFDEFF24F39401C0F5
S1131830F12C8F2DDF91CF911F910F91FF9008957F
S11318400F931F93CF93DF938A012091540423FDB8
S113185009C0052E59E0660F771F881F991F5A95F6
S1131860D1F7502DAB01BC0181E1C1DEC82F81113C
S113187011C0B3DE8F3FE9F38E3F69F4E8011E5FC8
S1131880ACDE8993C017D107D9F7A7DEA6DEACDE9C
S1131890C1E001C0C0E08C2FDF91CF911F910F9167
S11318A00895E0ECF0E0908195FFFDCF8093C600B1
S11318B00895CF93DF93EC018881882329F0219642
S11318C0F0DF89918111FCCFDF91CF910895E2EC93
S11318D0F0E08081866080831092C50088E0809368
S11318E0C400E1ECF0E08081886180830895CF93A7
S11318F0DF93FC0111A210A289E182A313A2A0E844
S1131900B0E08C9182608C93C1E8D0E088818861DA
S113191088838C91806A8C938FE39CE990938700F1
S11319208093860084B1806684B98FE697E19093B2
S11319308D0080938C00AFE6B0E08C9188608C932E
S113194081E090E0918B808BDF91CF9108958FE0BF
S113195094E0CDCF089523E330E0FC01318320836C
S11319601092C50080818093C400E2ECF0E0808195
S113197086608083089587E394E0EDCF0895FC01A9
S113198081E08083118213821282579A5F98E3E781
S1131990F0E080818160808384EB90E09093290162
S11319A080932801E9E6F0E08081806480830895D3
S11319B089E394E0E4CF0895A1E21A2EAA1BBB1B8D
S11319C0FD010DC0AA1FBB1FEE1FFF1FA217B30707
S11319D0E407F50720F0A21BB30BE40BF50B661F1D
S11319E0771F881F991F1A9469F7609570958095E1
S11319F090959B01AC01BD01CF010895A29FB00158
S1131A00B39FC001A39F700D811D1124911DB29F2E
S1131A10700D811D1124911D0895F0DFA59F900D77
S1131A20B49F900DA49F800D911D11240895EE0F75
S1131A30FF1F881F8BBF0790F691E02D1994911119
S1131A40089581568A5108F4805285580895FB01FF
S1131A50DC010D900020E9F7119701900D92002010
S1131A60E1F70895FB01DC014150504048F001903A
S1131A700D920020C9F701C01D9241505040E0F77B
S1091A800895F894FFCF65
S1131A86202A2A2A206D6D6320696E6974206F727C
S1131A9620666174206C6F6164206661696C65649C
S1131AA6202A2A2A200000202A2A2A2073746172F6
S1131AB6746C79202A2A2A200000202A2A2A206FD8
S1131AC66B656C79202A2A2A200000202A2A2A20DB
S1131AD66265666F726520696E6E657220777269DB
S1131AE67465202A2A2A200000202A2A2A206166D0
S1131AF674657220696E6E657220777269746520EA
S1131B0666696C65206F70656E202A2A2A2000009B
S1131B16202A2A2A20616674657220696E6E6572AF
S1131B262077726974652066696C65207365656BD8
S1131B36202A2A2A200000202A2A2A20616674657F
S1131B467220696E6E6572207772697465206669A3
S1131B566C65207772697465202A2A2A2000002081
S1131B662A2A2A20616674657220696E6E6572205F
S1131B767772697465202A2A2A200000202A2A2AD4
S1131B86206E6F742065786973746C79202A2A2A0A
S1131B96200000202A2A2A206265666F7265207753
S1131BA672697465202A2A2A200000202A2A2A20FB
S1131BB66166746572207772697465202A2A2A2000
S1131BC60000212121494D504F5254414E542121A8
S1131BD6212D3E000049443B4461746554696D659A
S1131BE63B4C4449443B44697374616E636500002D
S1131BF649443B4461746554696D653B4D6F647536
S1131C066C653B4572726F72000049443B446174D3
S1131C166554696D653B4D6F64756C653B56616CC7
S1131C267565000031000D202F2F2F207265616429
S1131C36696E67206E6F77203D3D3D200D000D20B7
S1131C463D3D3D2072656164696E6720656E642062
S1131C562F2F2F200D000D204C494E45204E4F545A
S1131C6620464F554E44202121210D003B4441542A
S1131C764554494D453B004C442E43535600454478
S10F1C862E4353560047442E435356008F
S9030000FC
